{
  "contractName": "Solitaire",
  "abi": [
    {
      "inputs": [],
      "payable": true,
      "stateMutability": "payable",
      "type": "constructor"
    },
    {
      "payable": true,
      "stateMutability": "payable",
      "type": "fallback"
    },
    {
      "anonymous": false,
      "inputs": [
        {
          "indexed": false,
          "name": "user",
          "type": "address"
        },
        {
          "indexed": false,
          "name": "RandomNum",
          "type": "uint256"
        }
      ],
      "name": "AddNewRandomNum",
      "type": "event"
    },
    {
      "anonymous": false,
      "inputs": [
        {
          "indexed": false,
          "name": "user",
          "type": "address"
        },
        {
          "indexed": false,
          "name": "CoinCount",
          "type": "uint256"
        }
      ],
      "name": "WinCoin",
      "type": "event"
    },
    {
      "anonymous": false,
      "inputs": [
        {
          "indexed": false,
          "name": "user",
          "type": "address"
        },
        {
          "indexed": false,
          "name": "amout",
          "type": "uint256"
        }
      ],
      "name": "Deposit",
      "type": "event"
    },
    {
      "constant": false,
      "inputs": [],
      "name": "GetNonce",
      "outputs": [
        {
          "name": "",
          "type": "uint256"
        }
      ],
      "payable": false,
      "stateMutability": "nonpayable",
      "type": "function"
    },
    {
      "constant": false,
      "inputs": [],
      "name": "GenerateRandom",
      "outputs": [
        {
          "name": "",
          "type": "uint256"
        }
      ],
      "payable": true,
      "stateMutability": "payable",
      "type": "function"
    },
    {
      "constant": false,
      "inputs": [],
      "name": "SolitaireMain",
      "outputs": [
        {
          "name": "",
          "type": "uint256"
        }
      ],
      "payable": true,
      "stateMutability": "payable",
      "type": "function"
    },
    {
      "constant": false,
      "inputs": [
        {
          "name": "randomNum",
          "type": "uint256"
        }
      ],
      "name": "calculateWiners",
      "outputs": [
        {
          "name": "",
          "type": "uint256[]"
        }
      ],
      "payable": false,
      "stateMutability": "nonpayable",
      "type": "function"
    },
    {
      "constant": true,
      "inputs": [],
      "name": "getRandomArrayLength",
      "outputs": [
        {
          "name": "",
          "type": "uint256"
        }
      ],
      "payable": false,
      "stateMutability": "view",
      "type": "function"
    },
    {
      "constant": true,
      "inputs": [],
      "name": "getRandomNumArray",
      "outputs": [
        {
          "name": "",
          "type": "uint256[]"
        }
      ],
      "payable": false,
      "stateMutability": "view",
      "type": "function"
    },
    {
      "constant": true,
      "inputs": [
        {
          "name": "addr",
          "type": "address"
        }
      ],
      "name": "GetRandomNumByAddress",
      "outputs": [
        {
          "name": "",
          "type": "uint256[]"
        }
      ],
      "payable": false,
      "stateMutability": "view",
      "type": "function"
    },
    {
      "constant": false,
      "inputs": [],
      "name": "deposit",
      "outputs": [],
      "payable": true,
      "stateMutability": "payable",
      "type": "function"
    },
    {
      "constant": true,
      "inputs": [],
      "name": "GetBalance",
      "outputs": [
        {
          "name": "",
          "type": "uint256"
        }
      ],
      "payable": false,
      "stateMutability": "view",
      "type": "function"
    }
  ],
  "bytecode": "0x608060405267016345785d8a000060005567013fbe85edc900006001556000600255610a3c806100306000396000f300608060405260043610610099576000357c0100000000000000000000000000000000000000000000000000000000900463ffffffff16806302a3c80a146101ae5780633fcaeca5146101d95780636c815a39146102045780637a48e79014610270578063d0085b5b1461028e578063d0e30db0146102ac578063e3ca8f15146102b6578063f5f7492214610338578063f8f8a912146103d0575b60005434141515610138576040517f08c379a00000000000000000000000000000000000000000000000000000000081526004018080602001828103825260218152602001807f4465706f736974206d6f6e6579206d757374206265203130302066696e6e657281526020017f790000000000000000000000000000000000000000000000000000000000000081525060400191505060405180910390fd5b6101406103fb565b507fe1fffcc4923d04b559f4d29a8bfc6cda04eb5b0d3c460751c2402c5c5cc9109c3334604051808373ffffffffffffffffffffffffffffffffffffffff1673ffffffffffffffffffffffffffffffffffffffff1681526020018281526020019250505060405180910390a1005b3480156101ba57600080fd5b506101c3610456565b6040518082815260200191505060405180910390f35b3480156101e557600080fd5b506101ee610463565b6040518082815260200191505060405180910390f35b34801561021057600080fd5b5061021961047b565b6040518080602001828103825283818151815260200191508051906020019060200280838360005b8381101561025c578082015181840152602081019050610241565b505050509050019250505060405180910390f35b6102786104d3565b6040518082815260200191505060405180910390f35b6102966103fb565b6040518082815260200191505060405180910390f35b6102b46105c9565b005b3480156102c257600080fd5b506102e16004803603810190808035906020019092919050505061063f565b6040518080602001828103825283818151815260200191508051906020019060200280838360005b83811015610324578082015181840152602081019050610309565b505050509050019250505060405180910390f35b34801561034457600080fd5b50610379600480360381019080803573ffffffffffffffffffffffffffffffffffffffff16906020019092919050505061095a565b6040518080602001828103825283818151815260200191508051906020019060200280838360005b838110156103bc5780820151818401526020810190506103a1565b505050509050019250505060405180910390f35b3480156103dc57600080fd5b506103e56109f1565b6040518082815260200191505060405180910390f35b6000806104066104d3565b905060006003805490501415610447576003819080600181540180825580915050906001820390600052602060002001600090919290919091505550610452565b6104508161063f565b505b5090565b6000600380549050905090565b60006002600081548092919060010191905055905090565b606060038054806020026020016040519081016040528092919081815260200182805480156104c957602002820191906000526020600020905b8154815260200190600101908083116104b5575b5050505050905090565b60008060006104e0610463565b9150600a423384604051602001808481526020018373ffffffffffffffffffffffffffffffffffffffff1673ffffffffffffffffffffffffffffffffffffffff166c0100000000000000000000000002815260140182815260200193505050506040516020818303038152906040526040518082805190602001908083835b602083101515610584578051825260208201915060208101905060208303925061055f565b6001836020036101000a0380198251168184511680821785525050505050509050019150506040518091039020600190048115156105be57fe5b069050809250505090565b6105d16103fb565b507fe1fffcc4923d04b559f4d29a8bfc6cda04eb5b0d3c460751c2402c5c5cc9109c3334604051808373ffffffffffffffffffffffffffffffffffffffff1673ffffffffffffffffffffffffffffffffffffffff1681526020018281526020019250505060405180910390a1565b606060008060008060008060008096506003805490509550600093505b8584101561069e5760038481548110151561067357fe5b9060005260206000200154891415610691576001965083945061069e565b838060010194505061065c565b8615156107415760038990806001815401808255809150509060018203906000526020600020016000909192909190915055507f2f6ea1f1798d6cf75b7f6ac12f45685d312d5acb170642bb2697f79d830756a4338a604051808373ffffffffffffffffffffffffffffffffffffffff1673ffffffffffffffffffffffffffffffffffffffff1681526020018281526020019250505060405180910390a16108fb565b6001860392505b848310151561077c5760038381548110151561076057fe5b9060005260206000200160009055828060019003935050610748565b339150600185870301905080600154023073ffffffffffffffffffffffffffffffffffffffff163110151515610840576040517f08c379a000000000000000000000000000000000000000000000000000000000815260040180806020018281038252602d8152602001807f436f6e7472616374206164647265737320646f6573206e6f742065786973742081526020017f656e6f756768206d6f6e65792e0000000000000000000000000000000000000081525060400191505060405180910390fd5b8173ffffffffffffffffffffffffffffffffffffffff166108fc82600154029081150290604051600060405180830381858888f1935050505015801561088a573d6000803e3d6000fd5b507f6b50fb4ff1cf95bdb30f5390d8352cdf06c9f101aeb22806d7bc44fb7512f66a338260015402604051808373ffffffffffffffffffffffffffffffffffffffff1673ffffffffffffffffffffffffffffffffffffffff1681526020018281526020019250505060405180910390a15b600380548060200260200160405190810160405280929190818152602001828054801561094757602002820191906000526020600020905b815481526020019060010190808311610933575b5050505050975050505050505050919050565b6060600460008373ffffffffffffffffffffffffffffffffffffffff1673ffffffffffffffffffffffffffffffffffffffff1681526020019081526020016000208054806020026020016040519081016040528092919081815260200182805480156109e557602002820191906000526020600020905b8154815260200190600101908083116109d1575b50505050509050919050565b60003073ffffffffffffffffffffffffffffffffffffffff16319050905600a165627a7a7230582056e91e675de8c3445763138c24bde3f935857242d0c61fbe97e675fdead9ea210029",
  "source": "pragma solidity ^0.4.23;\n\ncontract Solitaire {\n    uint depositAmount = 100 finney;\n    uint rollbackAmount = 90 finney;\n    uint randomNonce = 0;\n    uint[] randomNumArray;\n    mapping(address => uint[]) PayoffMatrix;\n\n    // 当有新的随机数字添加到池中时触发该事件\n    event AddNewRandomNum(address user, uint RandomNum);\n    event WinCoin(address user, uint256 CoinCount);\n    // 充值事件\n    event Deposit(address user, uint256 amout);\n\n    constructor() public payable{\n    }\n\n    function GetNonce() public returns (uint) {\n        return randomNonce ++;\n    }\n\n    // 散列生成随机数字\n    function GenerateRandom() public payable  returns (uint) {\n        uint currentNonce = GetNonce();//GetNonce();\n\n        uint random = uint(keccak256(abi.encodePacked(now, msg.sender, currentNonce)))%10;\n\n        return random;\n    }\n\n    function SolitaireMain() public payable returns(uint) {\n        uint randomNum = GenerateRandom();\n        \n        if (randomNumArray.length == 0) {\n            randomNumArray.push(randomNum);\n        } else {\n            calculateWiners(randomNum);\n        }   \n    }\n\n    // 计算随机数是否在存在池中\n    function calculateWiners(uint randomNum) public  returns(uint[]) {\n        bool isMatching = false;\n        uint length = randomNumArray.length;\n        uint matchingindex;\n        for (uint index = 0; index < length; index ++) {\n            if (randomNum == randomNumArray[index]) {\n                isMatching = true;\n                matchingindex = index;\n                break;\n            }\n        }\n        if (!isMatching) {\n            // PayoffMatrix[msg.sender].push(randomNum);\n            randomNumArray.push(randomNum);\n            emit AddNewRandomNum(msg.sender, randomNum);\n        } else {\n            for (uint i = length - 1; i >= matchingindex; i --) {\n                delete randomNumArray[i];\n            }\n            address ower = msg.sender;\n            uint interval = length - matchingindex + 1;\n            require(address(this).balance >= rollbackAmount * interval, \"Contract address does not exist enough money.\");\n            ower.transfer(rollbackAmount * interval);\n            emit WinCoin(msg.sender, rollbackAmount * interval);\n        }\n        return randomNumArray;\n    }\n\n    function getRandomArrayLength() public view returns(uint) {\n        return randomNumArray.length;\n    }\n\n    function getRandomNumArray() public view returns(uint[]) {\n        return randomNumArray;\n    }\n\n    function GetRandomNumByAddress(address addr) public view returns(uint[]) {\n        return PayoffMatrix[addr];\n    }\n\n    // 通过合约地址充值触发该事件\n    function () public payable{\n        require(msg.value == depositAmount, \"Deposit money must be 100 finnery\");\n        SolitaireMain();\n        emit Deposit(msg.sender, msg.value);\n    }\n   \n    // 合约的充值函数\n    function deposit() public payable {\n        SolitaireMain();\n        emit Deposit(msg.sender, msg.value);\n    }\n\n    // 获取合约余额的函数\n    function GetBalance() public view returns(uint256) {\n        return address(this).balance;\n    }\n}",
  "sourcePath": "/Volumes/yy/Ethreum/truffle/solitaire/contracts/Solitaire.sol",
  "compiler": {
    "name": "solc",
    "version": "0.4.24+commit.e67f0147.Emscripten.clang"
  },
  "schemaVersion": "2.0.1",
  "updatedAt": "2018-09-05T06:00:59.060Z"
}