{
  "contractName": "SolitaireUpgrate2",
  "abi": [
    {
      "inputs": [],
      "payable": true,
      "stateMutability": "payable",
      "type": "constructor"
    },
    {
      "payable": true,
      "stateMutability": "payable",
      "type": "fallback"
    },
    {
      "anonymous": false,
      "inputs": [
        {
          "indexed": false,
          "name": "user",
          "type": "address"
        },
        {
          "indexed": false,
          "name": "RandomNum",
          "type": "uint256"
        }
      ],
      "name": "AddNewRandomNum",
      "type": "event"
    },
    {
      "anonymous": false,
      "inputs": [
        {
          "indexed": false,
          "name": "user",
          "type": "address"
        },
        {
          "indexed": false,
          "name": "CoinCount",
          "type": "uint256"
        }
      ],
      "name": "WinCoin",
      "type": "event"
    },
    {
      "anonymous": false,
      "inputs": [
        {
          "indexed": false,
          "name": "user",
          "type": "address"
        },
        {
          "indexed": false,
          "name": "amout",
          "type": "uint256"
        }
      ],
      "name": "Deposit",
      "type": "event"
    },
    {
      "constant": false,
      "inputs": [],
      "name": "GetNonce",
      "outputs": [
        {
          "name": "",
          "type": "uint256"
        }
      ],
      "payable": false,
      "stateMutability": "nonpayable",
      "type": "function"
    },
    {
      "constant": false,
      "inputs": [],
      "name": "GenerateRandom",
      "outputs": [
        {
          "name": "",
          "type": "uint256"
        }
      ],
      "payable": true,
      "stateMutability": "payable",
      "type": "function"
    },
    {
      "constant": false,
      "inputs": [],
      "name": "SolitaireMain",
      "outputs": [
        {
          "name": "",
          "type": "uint256"
        }
      ],
      "payable": true,
      "stateMutability": "payable",
      "type": "function"
    },
    {
      "constant": false,
      "inputs": [
        {
          "name": "randomNum",
          "type": "uint256"
        }
      ],
      "name": "calculateWiners",
      "outputs": [
        {
          "name": "",
          "type": "uint256[]"
        }
      ],
      "payable": false,
      "stateMutability": "nonpayable",
      "type": "function"
    },
    {
      "constant": true,
      "inputs": [],
      "name": "getRandomArrayLength",
      "outputs": [
        {
          "name": "",
          "type": "uint256"
        }
      ],
      "payable": false,
      "stateMutability": "view",
      "type": "function"
    },
    {
      "constant": true,
      "inputs": [],
      "name": "getRandomNumArray",
      "outputs": [
        {
          "name": "",
          "type": "uint256[]"
        }
      ],
      "payable": false,
      "stateMutability": "view",
      "type": "function"
    },
    {
      "constant": true,
      "inputs": [
        {
          "name": "addr",
          "type": "address"
        }
      ],
      "name": "GetRandomNumByAddress",
      "outputs": [
        {
          "name": "",
          "type": "uint256[]"
        }
      ],
      "payable": false,
      "stateMutability": "view",
      "type": "function"
    },
    {
      "constant": false,
      "inputs": [],
      "name": "deposit",
      "outputs": [],
      "payable": true,
      "stateMutability": "payable",
      "type": "function"
    },
    {
      "constant": true,
      "inputs": [],
      "name": "GetBalance",
      "outputs": [
        {
          "name": "",
          "type": "uint256"
        }
      ],
      "payable": false,
      "stateMutability": "view",
      "type": "function"
    }
  ],
  "bytecode": "0x608060405267016345785d8a0000600055666a94d74f43000060015566f8b0a10e4700006002556000600355610b998061003a6000396000f300608060405260043610610099576000357c0100000000000000000000000000000000000000000000000000000000900463ffffffff16806302a3c80a1461009e5780633fcaeca5146100c95780636c815a39146100f45780637a48e79014610160578063d0085b5b1461017e578063d0e30db01461019c578063e3ca8f15146101a6578063f5f7492214610228578063f8f8a912146102c0575b600080fd5b3480156100aa57600080fd5b506100b36102eb565b6040518082815260200191505060405180910390f35b3480156100d557600080fd5b506100de6102f8565b6040518082815260200191505060405180910390f35b34801561010057600080fd5b50610109610310565b6040518080602001828103825283818151815260200191508051906020019060200280838360005b8381101561014c578082015181840152602081019050610131565b505050509050019250505060405180910390f35b610168610368565b6040518082815260200191505060405180910390f35b61018661041b565b6040518082815260200191505060405180910390f35b6101a4610476565b005b3480156101b257600080fd5b506101d16004803603810190808035906020019092919050505061058b565b6040518080602001828103825283818151815260200191508051906020019060200280838360005b838110156102145780820151818401526020810190506101f9565b505050509050019250505060405180910390f35b34801561023457600080fd5b50610269600480360381019080803573ffffffffffffffffffffffffffffffffffffffff169060200190929190505050610a66565b6040518080602001828103825283818151815260200191508051906020019060200280838360005b838110156102ac578082015181840152602081019050610291565b505050509050019250505060405180910390f35b3480156102cc57600080fd5b506102d5610afd565b6040518082815260200191505060405180910390f35b6000600480549050905090565b60006003600081548092919060010191905055905090565b6060600480548060200260200160405190810160405280929190818152602001828054801561035e57602002820191906000526020600020905b81548152602001906001019080831161034a575b5050505050905090565b60008060006103756102f8565b9150600a428360405160200180838152602001828152602001925050506040516020818303038152906040526040518082805190602001908083835b6020831015156103d657805182526020820191506020810190506020830392506103b1565b6001836020036101000a03801982511681845116808217855250505050505090500191505060405180910390206001900481151561041057fe5b069050809250505090565b600080610426610368565b905060006004805490501415610467576004819080600181540180825580915050906001820390600052602060002001600090919290919091505550610472565b6104708161058b565b505b5090565b60005434141515610515576040517f08c379a00000000000000000000000000000000000000000000000000000000081526004018080602001828103825260218152602001807f4465706f736974206d6f6e6579206d757374206265203130302066696e6e657281526020017f790000000000000000000000000000000000000000000000000000000000000081525060400191505060405180910390fd5b61051d61041b565b507fe1fffcc4923d04b559f4d29a8bfc6cda04eb5b0d3c460751c2402c5c5cc9109c3334604051808373ffffffffffffffffffffffffffffffffffffffff1673ffffffffffffffffffffffffffffffffffffffff1681526020018281526020019250505060405180910390a1565b6060600080600080600080600080600097506004805490509650600094505b868510156105e8576004858154811015156105c157fe5b90600052602060002001548a14156105db57600197508495505b84806001019550506105aa565b87151561074657600560003373ffffffffffffffffffffffffffffffffffffffff1673ffffffffffffffffffffffffffffffffffffffff1681526020019081526020016000208a908060018154018082558091505090600182039060005260206000200160009091929091909150555060048a908060018154018082558091505090600182039060005260206000200160009091929091909150555033600660008c815260200190815260200160002060006101000a81548173ffffffffffffffffffffffffffffffffffffffff021916908373ffffffffffffffffffffffffffffffffffffffff1602179055507f2f6ea1f1798d6cf75b7f6ac12f45685d312d5acb170642bb2697f79d830756a4338b604051808373ffffffffffffffffffffffffffffffffffffffff1673ffffffffffffffffffffffffffffffffffffffff1681526020018281526020019250505060405180910390a1610a06565b6001870393505b85841015156107975760048481548110151561076557fe5b906000526020600020016000905560048054809190600190036107889190610b1c565b5083806001900394505061074d565b600660008b815260200190815260200160002060009054906101000a900473ffffffffffffffffffffffffffffffffffffffff169250339150600186880301905080600054023073ffffffffffffffffffffffffffffffffffffffff163110151515610891576040517f08c379a000000000000000000000000000000000000000000000000000000000815260040180806020018281038252602d8152602001807f436f6e7472616374206164647265737320646f6573206e6f742065786973742081526020017f656e6f756768206d6f6e65792e0000000000000000000000000000000000000081525060400191505060405180910390fd5b8273ffffffffffffffffffffffffffffffffffffffff166108fc82600154029081150290604051600060405180830381858888f193505050501580156108db573d6000803e3d6000fd5b508173ffffffffffffffffffffffffffffffffffffffff166108fc82600254029081150290604051600060405180830381858888f19350505050158015610926573d6000803e3d6000fd5b507f6b50fb4ff1cf95bdb30f5390d8352cdf06c9f101aeb22806d7bc44fb7512f66a838260015402604051808373ffffffffffffffffffffffffffffffffffffffff1673ffffffffffffffffffffffffffffffffffffffff1681526020018281526020019250505060405180910390a17f6b50fb4ff1cf95bdb30f5390d8352cdf06c9f101aeb22806d7bc44fb7512f66a828260025402604051808373ffffffffffffffffffffffffffffffffffffffff1673ffffffffffffffffffffffffffffffffffffffff1681526020018281526020019250505060405180910390a15b6004805480602002602001604051908101604052809291908181526020018280548015610a5257602002820191906000526020600020905b815481526020019060010190808311610a3e575b505050505098505050505050505050919050565b6060600560008373ffffffffffffffffffffffffffffffffffffffff1673ffffffffffffffffffffffffffffffffffffffff168152602001908152602001600020805480602002602001604051908101604052809291908181526020018280548015610af157602002820191906000526020600020905b815481526020019060010190808311610add575b50505050509050919050565b60003073ffffffffffffffffffffffffffffffffffffffff1631905090565b815481835581811115610b4357818360005260206000209182019101610b429190610b48565b5b505050565b610b6a91905b80821115610b66576000816000905550600101610b4e565b5090565b905600a165627a7a72305820e0fa39129f84249d358135f768b3ffb75f4e7c17a97fa26e6950a985eb581f580029",
  "source": "pragma solidity ^0.4.23;\n\ncontract SolitaireUpgrate2 {\n    uint depositAmount = 100 finney;\n    uint firstWinerAmount = 30 finney;\n    uint secondWinnerAmount = 70 finney;\n\n    uint randomNonce = 0;\n    uint[] randomNumArray;\n    mapping(address => uint[]) PayoffMatrix;\n    mapping(uint => address) StakeOwner;\n\n    // 当有新的随机数字添加到池中时触发该事件\n    event AddNewRandomNum(address user, uint RandomNum);\n    event WinCoin(address user, uint256 CoinCount);\n    // 充值事件\n    event Deposit(address user, uint256 amout);\n\n    constructor() public payable{\n    }\n\n    function GetNonce() public returns (uint) {\n        return randomNonce ++;\n    }\n\n    // 散列生成随机数字\n    function GenerateRandom() public payable  returns (uint) {\n        uint currentNonce = GetNonce();//GetNonce();\n\n        uint random = uint(keccak256(abi.encodePacked(now, currentNonce)))%10;\n\n        return random;\n    }\n\n    function SolitaireMain() public payable returns(uint) {\n        uint randomNum = GenerateRandom();\n        \n        if (randomNumArray.length == 0) {\n            randomNumArray.push(randomNum);\n        } else {\n            calculateWiners(randomNum);\n        }   \n    }\n\n    // 计算随机数是否在存在池中\n    function calculateWiners(uint randomNum) public  returns(uint[]) {\n        bool isMatching = false;\n        uint length = randomNumArray.length;\n        uint matchingindex;\n        for (uint index = 0; index < length; index ++) {\n            if (randomNum == randomNumArray[index]) {\n                isMatching = true;\n                matchingindex = index;\n            }\n        }\n        if (!isMatching) {\n            PayoffMatrix[msg.sender].push(randomNum);\n            randomNumArray.push(randomNum);\n            StakeOwner[randomNum] = msg.sender;\n            emit AddNewRandomNum(msg.sender, randomNum);\n        } else {\n            for (uint i = length - 1; i >= matchingindex; i --) {\n                delete randomNumArray[i];\n                randomNumArray.length --;\n            }\n            address firstOwner = StakeOwner[randomNum];\n            address secondOwner = msg.sender;\n            uint interval = length - matchingindex + 1;\n            require(address(this).balance >= depositAmount * interval, \"Contract address does not exist enough money.\");\n            firstOwner.transfer(firstWinerAmount * interval);\n            secondOwner.transfer(secondWinnerAmount * interval);\n            emit WinCoin(firstOwner, firstWinerAmount * interval);\n            emit WinCoin(secondOwner, secondWinnerAmount * interval);\n        }\n        return randomNumArray;\n    }\n\n    function getRandomArrayLength() public view returns(uint) {\n        return randomNumArray.length;\n    }\n\n    function getRandomNumArray() public view returns(uint[]) {\n        return randomNumArray;\n    }\n\n    function GetRandomNumByAddress(address addr) public view returns(uint[]) {\n        return PayoffMatrix[addr];\n    }\n\n    // 通过合约地址充值触发该事件\n    function () public payable{\n        revert();\n        // require(msg.value == depositAmount, \"Deposit money must be 100 finnery\");\n        // SolitaireMain();\n        // emit Deposit(msg.sender, msg.value);\n    }\n   \n    // 合约的充值函数\n    function deposit() public payable {\n        require(msg.value == depositAmount, \"Deposit money must be 100 finnery\");\n        SolitaireMain();\n        emit Deposit(msg.sender, msg.value);\n    }\n\n    // 获取合约余额的函数\n    function GetBalance() public view returns(uint256) {\n        return address(this).balance;\n    }\n}",
  "sourcePath": "/Volumes/yy/Ethreum/truffle/solitaire/contracts/SolitaireUpgrate2.sol",
  "compiler": {
    "name": "solc",
    "version": "0.4.24+commit.e67f0147.Emscripten.clang"
  },
  "schemaVersion": "2.0.1",
  "updatedAt": "2018-09-07T06:16:18.221Z"
}